:100000000C9434000C947A000C9446000C94460036
:100010000C9446000C9446000C9446000C94460048
:100020000C9446000C9446000C9446000C94460038
:100030000C9446000C946B000C9446000C94460003
:100040000C9448000C9446000C9446000C94460016
:100050000C9446000C9497010C9446000C944600B6
:100060000C9446000C94460011241FBECFEFD4E040
:10007000DEBFCDBF21E0A0E0B1E001C01D92AA30FB
:10008000B207E1F70E94BE000C947C030C940000C0
:100090001F920F920FB60F9211248F9387B5811183
:1000A00012C088B55C98811107C05F988F910F903E
:1000B0000FBE0F901F9018955F9A8F910F900FBEF3
:1000C0000F901F9018955F985C9A8F910F900FBEBC
:1000D0000F901F9018951F920F920FB60F92112438
:1000E000109209011092080159980F900FBE0F90BD
:1000F0001F9018951F920F920FB60F9211242F93F5
:100100008F939F9329B1809184009091850022FD67
:1001100026C02091090121110DC0109208015998A3
:10012000109209019F918F912F910F900FBE0F9008
:100130001F9018959695879596958795969587958E
:10014000885E9340893E23E0920738F79093070139
:100150008093060181E080930801599AE1CF1092C3
:1001600085001092840081E0809309019F918F9116
:100170002F910F900FBE0F901F901895519A539A80
:1001800080E880BF10927F0010927E0086E480930A
:100190007C008EEE80937A0010927B00579A549ADE
:1001A000569A559A81EA84BD83E085BD16BC17BC7A
:1001B00018BC81E080936E001092800080938100D3
:1001C0001092850010928400109287001092860091
:1001D000109289001092880010928B0010928A0071
:1001E00080936F00809369008DBB8CBB1092680078
:1001F000789495E0E92EF12C80910801811109C0D5
:100200005B985C985F9818BC17BC809108018823A4
:10021000B9F3809100019091010160910601709104
:1002200007019B01281B390BC9010896419708F467
:100230006CC0E901CC0FDD1FCC0FDD1FC20FD31F37
:100240006091040170910501C60FD71FD09305017D
:10025000C09304018091020190910301A901481B00
:10026000590BCA01B7010E94B6018B0130930301FB
:1002700020930201B901330F880B990B0E9483026E
:100280002AE939E949E95FE30E940F034B015C0168
:10029000BE01DD0F880B990B0E9483022FE632E12D
:1002A00043E05BE30E940F039B01AC01C501B40175
:1002B0000E94DF014B015C01B801110F880B990B03
:1002C0000E9483022AE939E949E150E40E940F03C0
:1002D0009B01AC01C501B4010E94DF010E944B02E9
:1002E000CB0160347105BCF06FE35B9A5F9818BC7A
:1002F00067BD8FE097E20197F1F700C000007CCF67
:100300001816190694F3892B81F45B985C985F9812
:1003100018BC17BCEECF613C5FEF75078CF76FE33D
:100320005B9A5C9817BC68BDE4CF6195F9CF1F92CA
:100330000F920FB60F9211248F939F93EF93FF9319
:100340008091780090917900909301018093000151
:10035000EAE7F0E0808180648083FF91EF919F91D4
:100360008F910F900FBE0F901F90189597FB072E3F
:1003700016F4009407D077FD09D00E94CA0107FC4B
:1003800005D03EF4909581959F4F089570956195A5
:100390007F4F0895AA1BBB1B51E107C0AA1FBB1FBB
:1003A000A617B70710F0A61BB70B881F991F5A9501
:1003B000A9F780959095BC01CD0108955058BB27B1
:1003C000AA270E94F6010C94D5020E94C70238F0B9
:1003D0000E94CE0220F039F49F3F19F426F40C94C9
:1003E000C4020EF4E095E7FB0C94BE02E92F0E94D4
:1003F000E60258F3BA17620773078407950720F0DF
:1004000079F4A6F50C9408030EF4E0950B2EBA2FA0
:10041000A02D0B01B90190010C01CA01A00111240A
:10042000FF27591B99F0593F50F4503E68F11A16B6
:10043000F040A22F232F342F4427585FF3CF469547
:1004400037952795A795F0405395C9F77EF41F1669
:10045000BA0B620B730B840BBAF09150A1F0FF0F33
:10046000BB1F661F771F881FC2F70EC0BA0F621F1F
:10047000731F841F48F4879577956795B795F7950F
:100480009E3F08F0B0CF9395880F08F09927EE0FA4
:100490009795879508950E9452026894B1110C9423
:1004A000090308950E94EE0288F09F5798F0B92F33
:1004B0009927B751B0F0E1F0660F771F881F991F99
:1004C0001AF0BA95C9F714C0B13091F00E94080330
:1004D000B1E008950C940803672F782F8827B85F40
:1004E00039F0B93FCCF3869577956795B395D9F7F1
:1004F0003EF490958095709561957F4F8F4F9F4FFB
:100500000895E89409C097FB3EF490958095709506
:1005100061957F4F8F4F9F4F9923A9F0F92F96E94F
:10052000BB279395F695879577956795B795F111C4
:10053000F8CFFAF4BB0F11F460FF1BC06F5F7F4F61
:100540008F4F9F4F16C0882311F096E911C0772373
:1005500021F09EE8872F762F05C0662371F096E87C
:10056000862F70E060E02AF09A95660F771F881F4B
:10057000DAF7880F9695879597F9089597F99F6709
:1005800080E870E060E008959FEF80EC089500241B
:100590000A941616170618060906089500240A94E8
:1005A00012161306140605060895092E0394000C6E
:1005B00011F4882352F0BB0F40F4BF2B11F460FFFD
:1005C00004C06F5F7F4F8F4F9F4F089557FD905826
:1005D000440F551F59F05F3F71F04795880F97FB07
:1005E000991F61F09F3F79F08795089512161306C1
:1005F0001406551FF2CF4695F1DF08C016161706F0
:100600001806991FF1CF8695710561050894089524
:10061000E894BB2766277727CB0197F908950E94B6
:1006200022030C94D5020E94C70238F00E94CE0229
:1006300020F0952311F00C94BE020C94C4021124F6
:100640000C9409030E94E60270F3959FC1F3950F85
:1006500050E0551F629FF001729FBB27F00DB11D46
:10066000639FAA27F00DB11DAA1F649F6627B00DD6
:10067000A11D661F829F2227B00DA11D621F739FBF
:10068000B00DA11D621F839FA00D611D221F749FCD
:100690003327A00D611D231F849F600D211D822F14
:1006A000762F6A2F11249F5750409AF0F1F088233B
:1006B0004AF0EE0FFF1FBB1F661F771F881F915068
:1006C0005040A9F79E3F510580F00C94BE020C9457
:1006D00009035F3FE4F3983ED4F3869577956795D9
:1006E000B795F795E7959F5FC1F7FE2B880F911D92
:0C06F0009695879597F90895F894FFCF30
:00000001FF
